:020000040800F2
:100000000050002081110008490200084B0200083E
:100010004D0200084F0200085102000800000000D5
:100020000000000000000000000000005302000873
:10003000550200080000000057020008590200089D
:10004000C9110008C9110008C9110008C911000828
:10005000C9110008C9110008C9110008C911000818
:10006000C9110008C9110008C9110008C911000808
:10007000C9110008C9110008C9110008C9110008F8
:10008000C9110008C9110008C9110008C9110008E8
:10009000C9110008C9110008C9110008C9110008D8
:1000A000C9110008C9110008C9110008C9110008C8
:1000B000C9110008C9110008C9110008C9110008B8
:1000C000C9110008C9110008C9110008C9110008A8
:1000D000C9110008C9110008C9110008C911000898
:1000E000C9110008C9110008C9110008000000006A
:1000F0000000000000000000000000000000000000
:0C01000000000000000000005FF808F1A3
:10010C0010B5054C237833B9044B13B10448AFF345
:10011C0000800123237010BD0C00002000000000A3
:10012C002412000808B5034B1BB103490348AFF375
:10013C00008008BD00000000100000202412000800
:10014C0082B00A4B9A6942F004029A619A6902F0F1
:10015C0004020092009A9A6942F008029A619B6923
:10016C0003F008030193019B02B07047001002409A
:10017C0008B50948094B03601023436000238360D2
:10018C00C36003614361037643768376C37603775A
:10019C00437700F003F908BD2800002000640040FC
:1001AC0008B50848084B03604FF4E1334360002363
:1001BC008360C36003610C2242618361C36100F000
:1001CC0039FF08BD500000200044004010B590B02D
:1001DC002422002107A801F017F8002401940294AE
:1001EC000394049405940223069301230A93102389
:1001FC000B9306A800F0D8F90F23019302940394F3
:10020C0004940594214601A800F00CFC10B010BD1C
:10021C0008B500F08FF9FFF7D9FFFFF791FFFFF753
:10022C00A7FFFFF7BDFF642309220249024800F033
:10023C0030FFF8E73C120008500000207047FEE742
:10024C00FEE7FEE7FEE770477047704708B500F021
:10025C0083F908BD82B00E4B9A6942F001029A6193
:10026C009A6902F001020092009ADA6942F0805217
:10027C00DA61DB6903F080530193019B054A5368F3
:10028C0023F0E06343F08063536002B0704700BF1B
:10029C00001002400000014010B586B0002302930C
:1002AC0003930493059302681C4B9A4201D006B049
:1002BC0010BD03F5D633DA6942F00072DA61DA69FF
:1002CC0002F000720092009A9A6942F008029A6158
:1002DC009B6903F008030193019B4FF48073029315
:1002EC000023039304930E4C02A9204600F076FCE5
:1002FC004FF400730293022303930323059302A983
:10030C00204600F06BFC074A536823F4C04343F0CB
:10031C00E06343F480435360C9E700BF00640040CE
:10032C00000C01400000014010B586B00023029380
:10033C000393049305930268164B9A4201D006B0BE
:10034C0010BD03F5E633DA6942F40032DA61DA699A
:10035C0002F400320092009A9A6942F004029A6107
:10036C009B6903F004030193019B04230293022372
:10037C00039303230593084C02A9204600F02EFC9E
:10038C000823029300230393049302A9204600F050
:10039C0025FCD4E70044004000080140002800F090
:1003AC00A18038B5044690F82030D3B12268136888
:1003BC0023F00203136000F0DBF8054623685A684B
:1003CC0012F0020F10D000F0D3F8401B0A28F5D918
:1003DC00636A43F400336362052384F82030012000
:1003EC0038BDFFF759FFE1E71A6842F001021A60C5
:1003FC0000F0BEF8054623685A6812F0010F0DD1C3
:10040C0000F0B6F8401B0A28F5D9636A43F40033B0
:10041C006362052384F820300120E1E7227E012A63
:10042C003DD01A6822F080021A60637E012B3BD00B
:10043C002268136823F040031360A37E012B39D08C
:10044C002268136823F020031360E37E012B37D05E
:10045C002268136843F010031360237F012B35D0FF
:10046C002268136823F008031360637F012B33D0D9
:10047C002268136823F004031360A368E268134333
:10048C0022691343626913436268013A216813437A
:10049C00CB6100206062012384F82030A0E71A6849
:1004AC0042F080021A60C0E72268136843F04003F0
:1004BC001360C2E72268136843F020031360C4E79B
:1004CC002268136823F010031360C6E722681368D0
:1004DC0043F008031360C8E72268136843F0040371
:1004EC001360CAE70120704710B504460E4B18780C
:1004FC004FF47A73B3FBF0F30C4A1068B0FBF3F0D3
:10050C0000F0C2FC68B90F2C01D901200AE00022CE
:10051C0021464FF0FF3000F083FC054B1C6000209F
:10052C0000E0012010BD00BF0000002008000020EA
:10053C000400002008B5074A136843F01003136049
:10054C00032000F05BFC0020FFF7CEFFFFF782FEDC
:10055C00002008BD00200240034A1168034B1B78A1
:10056C000B441360704700BF900000200000002077
:10057C00014B1868704700BF9000002082B0084BF8
:10058C001B68084AA2FB03235B0A00FB03F30193DD
:10059C0000BF019B5A1E0192002BF9D102B070478B
:1005AC0008000020D34D6210002800F0F18170B5D6
:1005BC0082B00446036813F0010F2CD0AA4B5B6881
:1005CC0003F00C03042B1DD0A74B5B6803F00C034A
:1005DC00082B12D06368B3F5803F41D0002B55D166
:1005EC0003F1804303F504331A6822F480321A6055
:1005FC001A6822F480221A6037E09B4B5B6813F474
:10060C00803FE7D0984B1B6813F4003F03D063681E
:10061C00002B00F0BF81236813F0020F75D0924BB2
:10062C005B6813F00C0F5FD08F4B5B6803F00C030F
:10063C00082B54D02369002B00F089808B4B0122AE
:10064C001A60FFF795FF0546874B1B6813F0020FE6
:10065C0074D1FFF78DFF401B0228F5D903209EE1D2
:10066C00814A136843F480331360636843B3FFF724
:10067C007FFF05467C4B1B6813F4003FCBD1FFF783
:10068C0077FF401B6428F5D9032088E1B3F5A02F30
:10069C0009D0754B1A6822F480321A601A6822F459
:1006AC0080221A60E1E703F18043A3F53C331A681A
:1006BC0042F480221A601A6842F480321A60D4E73D
:1006CC00FFF756FF0546684B1B6813F4003FA2D09A
:1006DC00FFF74EFF401B6428F5D903205FE1624B06
:1006EC005B6813F4803FA5D15F4B1B6813F0020FBE
:1006FC0003D02369012B40F04F815B4A136823F030
:10070C00F803616943EAC1031360236813F0080F0F
:10071C0032D0A369002B45D0554B01221A60FFF74C
:10072C0027FF0546504B5B6A13F0020F21D1FFF7F0
:10073C001FFF401B0228F5D9032030E14A4A1368F9
:10074C0023F0F803616943EAC1031360DDE7474B0B
:10075C0000221A60FFF70CFF0546434B1B6813F091
:10076C00020FD2D0FFF704FF401B0228F5D903205B
:10077C0015E10120FFF702FF236813F0040F00F0CE
:10078C009780394BDB6913F0805F1DD1364BDA69EA
:10079C0042F08052DA61DB6903F080530193019BD4
:1007AC00012512E0324B00221A60FFF7E1FE0546EC
:1007BC002D4B5B6A13F0020FDED0FFF7D9FE401B06
:1007CC000228F5D90320EAE000252A4B1B6813F414
:1007DC00807F11D0E368012B22D0002B38D103F19C
:1007EC00804303F504331A6A22F001021A621A6A72
:1007FC0022F004021A6218E01E4A136843F4807354
:10080C001360FFF7B5FE06461A4B1B6813F4807F86
:10081C00E0D1FFF7ADFE801B6428F5D90320BEE0C4
:10082C00114A136A43F001031362E36873B3FFF7D1
:10083C009FFE06460C4B1B6A13F0020F37D1FFF7D5
:10084C0097FE801B41F288339842F3D90320A6E02F
:10085C00052B11D0044B1A6A22F001021A621A6A93
:10086C0022F004021A62E0E700100240000042424B
:10087C0080044242007000404D4B1A6A42F0040260
:10088C001A621A6A42F001021A62CEE7FFF770FE92
:10089C000646474B1B6A13F0020F08D0FFF768FEA1
:1008AC00801B41F288339842F3D9032077E0E5B9F5
:1008BC00E369002B72D03E4A526802F00C02082AFF
:1008CC0056D0022B17D03B4B00221A60FFF750FE7C
:1008DC000446374B1B6813F0007F47D0FFF748FEE8
:1008EC00001B0228F5D9032059E0314AD36923F0C3
:1008FC008053D361DCE72F4B00221A60FFF738FEE0
:10090C0005462B4B1B6813F0007F06D0FFF730FE1B
:10091C00401B0228F5D9032041E0236AB3F5803F40
:10092C001AD023494B6823F47413226A606A024379
:10093C0013434B601F4B01221A60FFF719FE04464C
:10094C001B4B1B6813F0007F0ED1FFF711FE001B31
:10095C000228F5D9032022E0154A536823F400330A
:10096C00A1680B435360DCE7002018E0002016E080
:10097C00012B16D00E4B5B6803F48031226A914236
:10098C0011D103F47013626A93420ED1002006E079
:10099C0001207047012002E0012000E0002002B09D
:1009AC0070BD0120FBE70120F9E70120F7E700BF4C
:1009BC00001002406000424286B0164B0FCB0DF186
:1009CC00180C0CE90F0040F20123ADF80430124B67
:1009DC005B6803F00C02082A02D0104806B070477E
:1009EC00C3F38342624412F8102C13F4803F0CD0F2
:1009FC00094B5B68C3F34043634413F8143C07484A
:100A0C0000FB02F0B0FBF3F0E8E7054800FB02F056
:100A1C00E4E700BF481200080010024000127A0000
:100A2C0000093D00002800F0A08070B50D4604467A
:100A3C00524B1B6803F007038B420BD24F4A1368CF
:100A4C0023F007030B431360136803F007038B4277
:100A5C0040F08D80236813F0020F17D013F0040FB1
:100A6C0004D0474A536843F4E0635360236813F09F
:100A7C00080F04D0424A536843F460535360404A11
:100A8C00536823F0F003A1680B435360236813F001
:100A9C00010F31D06368012B20D0022B25D0384AAE
:100AAC00126812F0020F64D035494A6822F0030232
:100ABC0013434B60FFF75CFD0646314B5B6803F05C
:100ACC000C036268B3EB820F16D0FFF751FD801B4D
:100ADC0041F288339842F0D9032045E0284A126845
:100AEC0012F4003FE0D101203EE0254A126812F0DA
:100AFC00007FD9D1012037E0204B1B6803F007039E
:100B0C00AB420AD91D4A136823F007032B43136029
:100B1C00136803F00703AB422DD1236813F0040FC5
:100B2C0006D0174A536823F4E063E1680B43536023
:100B3C00236813F0080F07D0114A536823F460534D
:100B4C00216943EAC1035360FFF736FF0C4B5B6826
:100B5C00C3F303130B4AD35CD8400B4B18600B4BFD
:100B6C001868FFF7C1FC002070BD01207047012000
:100B7C00FAE70120F8E70120F6E700BF0020024069
:100B8C00001002405C120008080000200400002045
:100B9C00014B1868704700BF0800002008B5FFF72C
:100BAC00F7FF044B5B68C3F30223034AD35CD840C2
:100BBC0008BD00BF001002406C12000808B5FFF71A
:100BCC00E7FF044B5B68C3F3C223034AD35CD840F2
:100BDC0008BD00BF001002406C120008F0B482B0D7
:100BEC0000252C46A3E07F4FBB4210D007D97E4F87
:100BFC00BB420CD007F58037BB4208D013E0A7F5F9
:100C0C008017BB4203D007F57027BB4207D18B6816
:100C1C00002B58D0012B51D04261082503E0A7F5D9
:100C2C008017BB42F3D0FF2E4FD88446FF2E4FD8EF
:100C3C00A200DCF800300F27974023EA070305FADF
:100C4C0002F21343CCF800304B6813F0805F6DD088
:100C5C00664B9A6942F001029A619B6903F00103A9
:100C6C000193019BA208971C614B53F8273004F0A9
:100C7C000307BF004FF00F0C0CFA07FC23EA0C0C17
:100C8C005C4B98422AD003F58063984200F08A802E
:100C9C0003F58063984200F0878003F580639842E7
:100CAC001AD004231BE0CD68BDE7CD680435BAE744
:100CBC00CD680835B7E7CD680C35B4E70261082577
:100CCC00B1E70025AFE70425ADE700F1040CADE773
:100CDC00A4F108029200ACE7032300E00023BB4020
:100CEC0043EA0C030232424F47F822304B6813F4AC
:100CFC00803F5BD0404A1368334313604B6813F456
:100D0C00003F59D03C4A5368334353604B6813F44B
:100D1C00801F57D0384A9368334393604B6813F461
:100D2C00001F55D0344AD3681E43D66001340B687B
:100D3C0033FA04F252D00122A24003EA020632EA4C
:100D4C000303F3D14B68122B3FF64DAF122B3FF63A
:100D5C006AAF01A757F823F01B0C0008B30C00086E
:100D6C00BD0C0008CF0C0008330C0008330C000835
:100D7C00330C0008330C0008330C0008330C00084B
:100D8C00330C0008330C0008330C0008330C00083B
:100D9C00330C0008330C0008330C0008B70C0008A7
:100DAC00C30C000801239AE7022398E7124A136840
:100DBC0023EA06031360A1E70F4A536823EA0603EC
:100DCC005360A3E70C4A936823EA06039360A5E7F4
:100DDC00094AD36823EA0606D660A7E702B0F0BC3E
:100DEC00704700BF000022100000311000100240BC
:100DFC00000001400008014000040140074AD3688C
:100E0C0023F4E0631B041B0C000200F4E0600343BA
:100E1C0043F0BF6343F40033D360704700ED00E050
:100E2C0030B4174BDB68C3F30223C3F10704042C63
:100E3C0028BF04241D1D062D18D9033B4FF0FF3588
:100E4C0005FA04F421EA0401994005FA03F322EAB5
:100E5C000303194300280BDB0901C9B200F1604000
:100E6C0000F5614080F8001330BC70470023E5E7C3
:100E7C0000F00F000901C9B2024B1954F4E700BF8E
:100E8C0000ED00E014ED00E00138B0F1807F0AD2F3
:100E9C00064B5860064AF02182F823100020986017
:100EAC0007221A6070470120704700BF10E000E075
:100EBC0000ED00E00F4B1A6842F001021A6059680D
:100ECC000D4A0A405A601A6822F0847222F4803269
:100EDC001A601A6822F480221A605A6822F4FE0200
:100EEC005A604FF41F029A60044B4FF000629A60F4
:100EFC00704700BF001002400000FFF800ED00E05A
:100F0C0038B504460268136923F44053C1680B4397
:100F1C00136183680269134342691A430168CB6801
:100F2C0023F4B05323F00C031343CB6002685369D2
:100F3C0023F4407381690B4353610268214B9A423D
:100F4C001FD0FFF72BFE00EB800000EB80006368E6
:100F5C009B00B0FBF3F01C4DA5FB00325109642340
:100F6C0003FB11031B013233A5FB03235B0903F0C5
:100F7C00F00202EB011203F00F03216813448B60A3
:100F8C0038BDFFF71BFE00EB800000EB80006368B0
:100F9C009B00B0FBF3F00C4DA5FB00325109642310
:100FAC0003FB11031B013233A5FB03235B0903F085
:100FBC00F00202EB011203F00F03216813448B6063
:100FCC00DEE700BF003801401F85EB512DE9F843E7
:100FDC0005460F4616469946DDF820802C68246895
:100FEC0037EA04030CBF01240024B4421FD1B8F12A
:100FFC00FF3FF3D0B8F1000F05D0FFF7B9FAA0EB23
:10100C0009004045EAD92A68D36823F4D073D36029
:10101C002A68536923F001035361202385F8393082
:10102C0085F83A30002385F83830032000E00020A2
:10103C00BDE8F88358B310B5044690F839300BB3BB
:10104C00242384F839302268D36823F40053D36006
:10105C002046FFF755FF2268136923F49043136170
:10106C002268536923F02A0353612268D36843F43E
:10107C000053D3600020E063202384F8393084F8D7
:10108C003A3010BD80F83830FFF74EF9D8E7012020
:10109C0070472DE9F04182B01E4690F83930DBB232
:1010AC00202B58D104460D469046002957D0002AD3
:1010BC0057D090F83830012B55D0012380F83830B8
:1010CC000023C363212380F83930FFF751FA074618
:1010DC00A4F82480A4F8268017E000963B46002252
:1010EC0080212046FFF772FF00283ED12B88226812
:1010FC00C3F30803536023690BB9023505E00135CE
:10110C0003E015F8012B23685A60E38C9BB29BB16A
:10111C00E28C92B2013A92B2E284A368B3F5805F9A
:10112C00DBD000963B46002280212046FFF74EFF85
:10113C000028E6D003200FE000963B460022402119
:10114C002046FFF743FF90B9202384F83930002361
:10115C0084F8383000E0022002B0BDE8F0810120B4
:10116C00FAE70120F8E70220F6E70320F4E7032072
:10117C00F2E70000002103E00B4B5B5843500431B5
:10118C000A480B4B42189A42F6D30A4A02E0002353
:10119C0042F8043B084B9A42F9D3FFF78BFE00F060
:1011AC000FF8FFF735F870477C120008000000209C
:1011BC000C0000200C00002094000020FEE7000032
:1011CC0070B500260C4D0D4C641BA410A64209D121
:1011DC0000F022F800260A4D0A4C641BA410A6420B
:1011EC0005D170BD55F8043B98470136EEE755F82C
:1011FC00043B98470136F2E7741200087412000899
:10120C00741200087812000803460244934200D17D
:10121C00704703F8011BF9E7F8B500BFF8BC08BC30
:10122C009E467047F8B500BFF8BC08BC9E46704798
:10123C00486F6C614D756E646F000000020304050D
:10124C00060708090A0B0C0D0E0F10100000000009
:10125C00000000000000000001020304060708095A
:08126C00000000000102030470
:04127400310100083C
:041278000D0100085C
:0C127C0001000000100000000024F4003D
:04000005080011815D
:00000001FF
